:020000040800F2
:1000000000000220610300085D0300085D03000892
:100010005D0300085D0300085D03000800000000A8
:100020000000000000000000000000005D03000868
:100030005D030008000000005D0300085D03000888
:100040005D0300085D0300085D0300085D03000810
:100050005D0300085D0300085D0300085D03000800
:100060005D0300085D0300085D0300085D030008F0
:100070005D0300085D0300085D0300085D030008E0
:100080005D0300085D0300085D0300085D030008D0
:100090005D0300085D0300085D0300085D030008C0
:1000A0005D0300085D0300085D0300085D030008B0
:1000B0005D0300085D0300085D0300085D030008A0
:1000C0005D0300085D0300085D0300085D03000890
:1000D0005D0300085D0300085D0300085D03000880
:1000E0005D0300085D030008000000005D030008D8
:1000F0005D0300085D0300085D0300085D03000860
:100100005D0300085D0300085D0300085D0300084F
:100110005D0300085D0300085D0300085D0300083F
:100120005D0300085D0300085D0300085D0300082F
:100130005D0300085D0300085D0300085D0300081F
:1001400000000000000000000000000000000000AF
:100150005D0300085D0300085D0300085D030008FF
:100160005D0300085D0300085D0300085D030008EF
:100170005D0300085D0300085D0300085D030008DF
:100180005D0300085D0300085D0300085D030008CF
:100190005D0300085D0300085D0300085D030008BF
:1001A0005D0300085D0300085D0300085D030008AF
:1001B0005D0300085D0300085D0300085D0300089F
:1001C0005D0300085D0300085D0300085D0300088F
:1001D0005D0300085D0300085D0300085D0300087F
:1001E0005D0300085D0300085D0300085D0300086F
:1001F0005D0300085D0300085D0300085D0300085F
:100200005D0300085D0300085D0300085D0300084E
:100210005D0300085D0300085D0300085D0300083E
:100220005D0300085D0300085D0300080000000096
:100230005D0300085D030008000000005D03000886
:100240005D0300085D0300085D0300085D0300080E
:100250005D0300085D0300085D0300085D030008FE
:100260005D0300085D0300085D0300085D030008EE
:100270005D0300085D0300085D0300080000000046
:100280005D0300085D0300085D0300080000000036
:08029000000000005D030008FE
:1002980010B5054C237833B9044B13B10448AFF3B8
:1002A80000800123237010BD180000240000000006
:1002B8007827000808B5034B1BB103490348AFF37F
:1002C800008008BD000000001C00002478270008FA
:1002D80010B41A4C00221A4BD4F88810194841F46B
:1002E8007001C4F888101968174C41F001011960B1
:1002F8001A6119680840154918609A61DA611A622A
:100308009A62DA621A635A639A63DA631A645A64FD
:10031800186820F4802018601A6623681940B1F123
:10032800005F03D20A4B0122C3F80821034B4FF0A8
:1003380000625DF8044B9A60704700BF00ED00E072
:10034800004402587FEDF6EA0010005C0000FFFF51
:1003580000800051FEE700BF0B480C4A904203D0D2
:10036800121A0B4902F0D6F90A480B4A904203D0F8
:10037800121A002102F0DCF9FFF7AAFF02F0A6F931
:1003880000F05EF8FEE700BF000000241000002423
:100398008027000818000024EC000024014B0122EB
:1003A8001A607047AC00002410B5C4B004220123C1
:1003B800214C02A80292049300F00EFF40224FF451
:1003C800406315A815923B9301F042FC1B4A002399
:1003D8002046D2F8F410A36241F400716360E3612F
:1003E800C4E90333C2F8F410D2F8F430A2F50832A5
:1003F80003F4007322604FF6FF7201934FF48003F9
:1004080001994FF4001163624FF480632162A36085
:100418004FF40033C4E9052300F01AFE00B1FEE7EB
:100428004FF400524FF48041204600F095FE00B191
:10043800FEE744B010BD00BFB000002400440258DD
:100448002DE980489DB0BFF34F8FBFF36F8F744B7A
:100458000021C3F85012BFF34F8FBFF36F8F5A6953
:1004680042F400325A61BFF34F8FBFF36F8FC3F866
:100478008410BFF34F8FD3F88030C3F34E3CC3F3DF
:10048800C90E4FEA4C1C43F6E07073460CEA0000B4
:1004980040EA8371013B624A5D1CC2F86012F7D1E1
:1004A800ACF1200C1CF1200FEDD1BFF34F8F536935
:1004B80043F480335361BFF34F8FBFF36F8F00F066
:1004C800EBF8022000F062FE564A0021564B0091DC
:1004D800D16A21F00101D162D26A02F001020092D0
:1004E8009A6942F440429A619B6903F4404300933D
:1004F800009B4D4B9B699C04FBD54FF48032002335
:10050800022401270A9205224FF0040808251492B4
:10051800A02209A80C93099710931B9318941A9377
:10052800CDF85C801995CDE91244CDE9152400F089
:1005380053FE00B1FEE74FF040093F234FF0030A96
:100548004FF4806B4146CDF82090CDF81CB0CDE932
:10055800030501A8CDE90599CDE9013A01F06AF949
:10056800064600285BD1314D4FF48051304BE8608E
:10057800C5F80890C5F810B0C5F828A06F60C5E99F
:100588000800C5E90B00D3F8E020284642F4001221
:10059800C3F8E020D3F8E03003F400130193019B83
:1005A800244B2B604FF48043C5E905134FF4807347
:1005B800EB6100F007FA32463146284600F0E0FCCD
:1005C80041461D4A284600F0DBFC3A463146812068
:1005D80000F0B0F8812000F0EBF84FF400330A2067
:1005E80009A90B97CDE90903284600F0F7FC3A461C
:1005F8003146802000F09EF8802000F0D9F8284687
:1006080000F016FDFFF7D0FE0C4A23460C49284699
:1006180000F096FB0B4A1368002BFCD0FEE7FEE7C0
:1006280000ED00E00004005800480258340000249F
:100638000044025808540258A50300081400025840
:1006480010000024AC000024704700BF0F4B1B783B
:100658000BB90120704710B504464FF47A700C4A64
:10066800B0FBF3F31068B0FBF3F000F0AFF80F2C19
:1006780000D808B1012010BD002221464FF0FF30FC
:1006880000F058F8034B00201C6010BD080000243F
:10069800000000240C00002438B50320124D00F09F
:1006A80037F8124C01F026F8114A12499369C3F33E
:1006B8000323CB5C03F01F0320FA03F30E202B6007
:1006C800926902F00F028A5C02F01F02D340236095
:1006D800FFF7BCFF10B10124204638BD0446FFF7E0
:1006E800B3FF204638BD00BF0000002404000024EA
:1006F8000044025848270008014B1868704700BF9B
:10070800E8000024014B1868000C70470010005CDA
:1007180006494FF6FF0C0002054BCA6800F4E0607A
:1007280002EA0C0210430343CB60704700ED00E07F
:100738000000FA051B4BDB68C3F3022300B5C3F1C5
:10074800070E03F1040CBEF1040F28BF4FF0040E8E
:10075800BCF1060F1AD9033B4FF0FF3C0CFA03FC1F
:1007680022EA0C024FF0FF3C00280CFA0EFC21EAAA
:100778000C0101FA03F141EA02010ADB09010A4B03
:10078800C9B2034483F800135DF804FB0022134642
:10079800E8E700F00F000901044BC9B203441976D9
:1007A8005DF804FB00ED00E000E100E0FCEC00E097
:1007B800002807DB00F01F0101234009024A8B4093
:1007C80042F82030704700BF00E100E0431EB3F15B
:1007D800807F0CD24FF0E022002006494FF0F00C49
:1007E8005361072381F823C090611361704701208A
:1007F800704700BF00ED00E00268344B344930B464
:10080800344D354CAA4218BF9A420CBF012300232D
:100818008A4208BF43F001033031A24208BF43F0C7
:10082800010330348A4208BF43F001033031A24249
:1008380008BF43F0010330348A4208BF43F0010384
:1008480001F55C71A24208BF43F0010304F55C7432
:100858008A4208BF43F001033031A24208BF43F087
:10086800010330348A4208BF43F001033031A24209
:1008780008BF43F0010330348A4208BF43F0010344
:100888003031A24208BF43F001038A4208BF43F057
:10089800010313B9114B9A4213D1D3B21049114C29
:1008A800103BA1FB03515F2B0F4BC1F3021103EA6D
:1008B8000203615C88BF0433C1658365184630BC98
:1008C800704722F0FF038365F8E700BF100002407D
:1008D800400002402800024058000240B80402408C
:1008E800ABAAAAAA5827000800FCFFFF0368294AF8
:1008F800294930B4294D2A4CAB4218BF93420CBF4A
:10090800012200228B4208BF42F001022831A34293
:1009180008BF42F0010228348B4208BF42F00102AE
:100928002831A34208BF42F001028B4208BF42F0BF
:10093800010212B91B4A934213D1DBB21A4C1B4A6B
:100948000121083B1A4DA4FB0343456602EB131231
:10095800C3F30413920001FA03F30266836630BC02
:100968007047DAB21349144C1944103AA829A4FB69
:1009780002234FEA131300D80833104A03F01F0567
:1009880001210F4C1A44A940446692008166026610
:10099800E5E700BF08540258305402581C54025866
:1009A8004454025894540258CDCCCCCC009600162E
:1009B80080580258F0FBFDBFABAAAAAA008200101B
:1009C8008008024070B50446FFF796FE002C00F040
:1009D800C68023680546954A934248D01832934208
:1009E80045D0303292498B4218BF934201F1300111
:1009F8000CBF012200228B4208BF42F001021831CD
:100A08008B4208BF42F0010218318B4208BF42F006
:100A1800010218318B4208BF42F0010201F55671FC
:100A28008B4208BF42F0010218318B4208BF42F0E6
:100A3800010218318B4208BF42F0010218318B4283
:100A480008BF42F0010218318B4208BF42F0010290
:100A580018318B4208BF42F0010218318B4208BF9F
:100A680042F001021AB9734A934240F0F58002221B
:100A7800002184F8352084F834101A6822F0010225
:100A88001A6005E0FFF738FE431B052B40D82368A2
:100A98001A68D107F6D4D4E9022521692A43A06946
:100AA8001D680A4361690A43E16902430A436249CE
:100AB8002940256A2A430A43616A04292FD01A600B
:100AC8005A6922F00702114359612046FFF794FE44
:100AD800E26D3F2302F01F02934083602046FFF738
:100AE80005FFA368802B3CD06368A06EDAB2013B97
:100AF800D4E91851072B2A60486026D90023C4E995
:100B08001B33636700200123606584F8353070BDAE
:100B1800202203230120626584F8353070BDD4E9B2
:100B28000B5129430A431A605969A26A21F0070147
:100B3800114341F00401002DC6D000284FD1012AED
:100B48006ED032F00202BFD151E0501E072810D9F2
:100B5800626FD4E91B31002018604A60D2E7012097
:100B680070BD0023A16ED4E9180263600360516070
:100B7800C4E72168314B324DA94218BF994205F1AB
:100B880014050CBF01230023A94208BF43F0010349
:100B98001435A94208BF43F001031435A94208BF20
:100BA80043F001031435A94208BF43F0010314358B
:100BB800A94208BF43F001033BB9224B994204D034
:100BC800214B224913449B0003E0214B2149134444
:100BD8009B0001228240C4E91B316267BBE7B0F584
:100BE800005F0ED0022A05D9032A7FF46DAFEA010F
:100BF8007FF56AAF012340221846626584F83530D4
:100C080070BD032A3FF660AF01A050F822F000BF84
:100C1800FD0B0008F70B0008FD0B0008290C000865
:100C2800B5F1C07F7FF450AFE4E700BF1000024089
:100C380040000240B80402403F8010FE08540258A9
:100C48001C540258945402583F8200104009024034
:100C58003F96001640590258324A33483349834276
:100C680018BF934200F128000CBF012200228B42DA
:100C780008BF42F001022831834208BF42F0010256
:100C880028308B4208BF42F001022831834208BF56
:100C980042F001028B4208BF42F0010212B9244A15
:100CA800934238D102220021224D84F8341084F86E
:100CB80035201A681540A268402A2AD0802A0CBF1D
:100CC8004FF480400846266AD4E90312D20842EA63
:100CD800D102616942EAD102A16942EAD102E1691D
:100CE80042EAD102144942EA161219442A4302433D
:100CF8001248A0FB010120461A600B099B00E3651E
:100D0800FFF77AFDE26D012302F01F029340436072
:100D1800E4E61020D7E7402203230120626584F827
:100D2800353070BD085402581C54025830540258CB
:100D3800945402580F00FEFFF8ABFDA7CDCCCCCCE5
:100D4800002800F0BC80844690F83400012800F0A8
:100D5800B88001202DE9F0419CF835408CF834002A
:100D6800844208D000224FF400638CF83420CCF879
:100D78005430BDE8F0810220DCF800507A4C8CF841
:100D880035000020794ECCF854007948854218BFC8
:100D9800A54200F118000CBF01240024854208BFB9
:100DA80044F001041830854208BF44F001041830AB
:100DB800854208BF44F001041830854208BF44F05A
:100DC800010400F55670854208BF44F0010418304C
:100DD800854208BF44F001041830854208BF44F03A
:100DE80001041830854208BF44F0010418308542D8
:100DF80008BF44F001041830854208BF44F00104DC
:100E08001830854208BF44F001041830854208BFF5
:100E180044F00104A0F59560B54218BF8542DCF89E
:100E28006C600CBF0120002054EA0008286820F0FC
:100E380001002860DCF86400DCF86840DCF85870D1
:100E4800446040D016B1DCE91C044460DCF85C0066
:100E58004FF03F0E00F01F000EFA00F0B86028684F
:100E680020F4802028606B60DCF80830402B23D009
:100E7800A960EA602B6823F01E0343F016032B6079
:100E8800DCF840301BB12B6843F008032B60DCF81A
:100E980060301A68D20303D51A6842F480721A6067
:100EA8001EB1336843F4807333602B68002043F02D
:100EB80001032B60BDE8F081AA60E960DAE7012050
:100EC80070470220704716B1DCE91C0444602948C9
:100ED800DFF8A8E0754518BF85420EF1140E0CBF67
:100EE80001200020754508BF40F001000EF1140EE6
:100EF800754508BF40F001000EF1140E754508BF96
:100F080040F001000EF1140E754508BF40F00100D5
:100F18000EF1140E754508BF40F0010010B91648CF
:100F280085420ED1DCF85C0000F01F0E012000FAAB
:100F38000EF078606B60DCF80830402B10D0A960A8
:100F4800EA602B6823F00E0343F00A032B60DCF8F9
:100F58004030002B9BD02B6843F004032B6096E7AE
:100F6800AA60E960EDE700BF4000024028000240A7
:100F78005800024008540258945402581C5402580D
:100F8800034698B190F83400012811D093F8350041
:100F9800012804D00120002283F834207047052955
:100FA8001AD8DFE801F00A0D101316070120704760
:100FB8000220704700201A65EDE70846DA63EAE781
:100FC80000201A64E7E700205A64E4E700209A64E6
:100FD800E1E70020DA64DEE70020DCE7034690F86A
:100FE8003520C06E68B110B40468E40302D4D2B2EC
:100FF800012A0AD04FF4006201205A655DF8044BBB
:101008007047402201205A65704793F83420012A1E
:101018000CD08C68D1E900210A43611E002442EA01
:10102800C1420260204683F83440E7E70220E5E742
:1010380090F835303BB1C36E2BB11A68002042F4EA
:1010480080321A6070470120704700BF704700BFA8
:10105800002863D0F8B590F83630044603F0FF0254
:10106800002B56D00223A76AD4E9002084F8363032
:101078000128D1683CD0B7F5000F39D065694FF623
:10108800FF739D4253D021F4604121F0C001A36851
:101098000128266A43EA000343EA0603666A43EA2C
:1010A8000603294E43EA070306EA010643EA060354
:1010B80002D0B7F5000F03D1D4E9031001430B4365
:1010C8004FF6FF718D4204D0D4E9061001430B435B
:1010D8002B431E49D3608A4212D01D4B9A420FD02F
:1010E8001C4B9A421CD00123002084F83630F8BDEE
:1010F80065694FF6FF7321F01E019D42C3D1C6E713
:10110800D4E90B3100200B435362012384F83630B5
:10111800F8BD80F83520FFF799FFA3E70120704755
:10112800E36A00205362012384F83630F8BD40EAB0
:101138000703A0680343206A0343606A0343024825
:1011480008400343C5E700BFF8F119FF0024004039
:1011580000240058002800580368844610B502246B
:101168004FF0010E80F836400020DC6824F480142B
:10117800DC601C6944EA0E041C6199615A611A69B1
:1011880042F004021A618CF836E010BD38B5114BF4
:10119800DA68520704D4DB6803F00703834214D1EA
:1011A8000C4CE36823F007031843E060FFF7A4FA48
:1011B800054605E0FFF7A0FA401BB0F57A7F06D890
:1011C80063689B04F6D5002038BD012038BD032094
:1011D80038BD00BF00480258002800F0DE81F8B58D
:1011E80003680446D80730D59F490A69896A02F01E
:1011F8003802102A00F00081182A00F0F88063688D
:10120800B3F5803F00F02081002B00F05E81B3F53C
:10121800A02F954B1A6800F02F8222F480321A60B2
:101228001A6822F480221A60FFF766FA8E4E41F29D
:101238008837054605E0FFF75FFA401BB84200F221
:10124800428133689A03F6D523689D0700F18580AB
:10125800D9062FD5844A1369926A03F03803082BFC
:1012680000F0DA80182B00F0D280E3697E4D002B65
:1012780000F065812B6843F080032B60FFF73CFA90
:10128800064605E0FFF738FA801B022800F21B81AA
:101298002B68DB05F6D5FFF735FA41F203039842D0
:1012A80000F20B826B68226A23F0F84343EA8263F8
:1012B8006B6023681D0716D563696B4D002B00F022
:1012C8001C816B6F43F001036B67FFF715FA064645
:1012D80005E0FFF711FA801B022800F2F4806B6F1B
:1012E8009807F6D523689A0616D5A3695E4D002B94
:1012F80000F014812B6843F480532B60FFF7FCF94E
:10130800064605E0FFF7F8F9801B022800F2DB80AB
:101318002B689F04F6D52368590700F19B80636A00
:10132800CBB1514D2A6902F03802182A6DD0022B30
:101338002B6823F080732B6000F03981FFF7DCF90C
:10134800044605E0FFF7D8F9001B022800F2BB802D
:101358002B689B01F6D40020F8BD434A1369926AB2
:1013680013F0380329D1404BE2681B68590701D5AF
:10137800002A4AD03C4D2B6823F0190313432B60F5
:10138800FFF7BAF9064605E0FFF7B6F9801B022811
:1013980000F299802B685B07F6D5FFF7B3F941F2A5
:1013A8000303226998426B6800F2F08023F47C33CF
:1013B80043EA02336B6023684AE7182B00F0E280A7
:1013C800294DE2682B68002A00F0CB8023F019032E
:1013D80013432B60FFF790F9064604E0FFF78CF9FA
:1013E800801B02286FD82B685F07F7D5D5E701F077
:1013F800030102297FF403AF1B4A126891037FF5AA
:1014080024AF6268002A7FF420AF0120F8BD02F003
:101418000302012A7FF429AF134B1B68DA0502D5B2
:10142800E369802BF1D1FFF76DF941F203030E4A0E
:101438009842216A00F2B380536823F0F84343EAE4
:1014480081635360236835E7074A136843F48033A0
:101458001360E9E6054D2B6843F480732B60FFF7B2
:101468004BF9064609E000BF0044025800480258FC
:10147800FFF742F9801B642825D82B68DA05F7D5D1
:10148800A368012B00F02281002B00F0FD80052BC2
:10149800954B1A6F00F0208122F001021A671A6F2B
:1014A80022F004021A67FFF727F98F4E41F28837B6
:1014B800054604E0FFF720F9401BB84203D8336F14
:1014C8009B07F7D52BE70320F8BD874D41F28837F6
:1014D8002B6823F480332B602B6823F480232B6044
:1014E800FFF70AF9064604E0FFF706F9801BB84241
:1014F800E9D82B689B03F7D4A6E66B6F23F00103AA
:101508006B67FFF7F9F8064604E0FFF7F5F8801B6C
:101518000228D8D86B6F9907F7D4E3E62B6823F431
:1015280080532B60FFF7E8F8064604E0FFF7E4F87D
:10153800801B0228C7D82B689804F7D4EBE62B68E1
:1015480023F080032B60FFF7D7F8064604E0FFF787
:10155800D3F8801B0228B6D82B68DF05F7D4236898
:10156800A8E623F001032B60FFF7C6F8064604E05F
:10157800FFF7C2F8801B0228A5D82B685807F7D4B4
:10158800236865E690077FF41BAFECE623F0FE4383
:1015980043EA02636B6023685AE601207047D36808
:1015A80023F07C5343EA0163D360236882E6FFF7A4
:1015B800A3F8064604E0FFF79FF8801B022882D8AC
:1015C8002B689901F7D4A96A484BA26A0B4048498D
:1015D800454E1343E26A43EA0213AB62D4E90D3283
:1015E800013B013A5B0212049BB202F4FE02134370
:1015F800226B013AC2F308021343E26B013A120666
:1016080002F0FE4213432B63EB6A23F00103EB6203
:101618006A6BA36C114041EAC3016963EB6A226CEF
:1016280023F00C031343EB62EB6A626C23F00203B2
:101638001343EB62EB6A43F48033EB62EB6A43F4E7
:101648000033EB62EB6A43F48023EB62EB6A43F00E
:101658000103EB622B6843F080732B60FFF74CF8B3
:10166800044605E0FFF748F8001B02283FF62BAFB9
:1016780033689A01F6D56EE642F480221A601A6839
:1016880042F480321A60CFE5174D41F288372B6F4C
:1016980023F001032B672B6F23F004032B67FFF75D
:1016A8002BF8064605E0FFF727F8801BB8423FF6FF
:1016B8000AAF2B6F9807F6D431E6EB68226A23F05D
:1016C8007C5343EA0263EB602368F3E5064A136F31
:1016D80043F001031367E6E642F004021A671A6F43
:1016E80042F001021A67DEE6004402580CFCFFFFD4
:1016F8000700FFFF474A136903F03803102B04D093
:10170800182B0DD01BB144487047444870471368E4
:1017180099064AD513684248C3F3C103D8407047B5
:10172800936A30B4946AD56A14F47C7F516BC4F31D
:10173800051038D0C1F3CC0105F0010503F003030F
:1017480005FB01F1012B07EE901AB8EEE77A02D0FB
:10175800022B2CD093B307EE900A9FED325AF8EE85
:10176800E77A136BC5EE276ADFED2F5AC3F3080338
:1017780007EE903AB7EE006AF8EEE77AE7EE257AD8
:1017880077EE867A66EEA76A224B1B6BC3F3462375
:10179800013307EE903AB8EEE77AC6EE877AFCEEA8
:1017A800E77A17EE900A30BC70471D48704707EE7D
:1017B800900A9FED1E5AF8EEE77AD2E713689B0667
:1017C80020D5146807EE900A1549F7EE005A136BF6
:1017D800C4F3C104F8EEE77A9FED135AC3F3080384
:1017E800E14006EE903A06EE101AF8EEE66AB8EE18
:1017F800C66AE7EE056A86EE277A76EEA56A66EE91
:10180800876AC1E707EE900A9FED095AF8EEE77A72
:10181800A7E700BF0044025800093D000024F40077
:101828000090D0030024744A000000390024744B4F
:101838000024744C002800F00281874A136803F0E2
:101848000F038B422DE9F04104460D460CD2136874
:1018580023F00F030B431360136803F00F038B424D
:1018680002D00120BDE8F08123685F070BD57B49D2
:1018780020698A6902F07002904204D98A6922F0CC
:10188800700202438A611E070BD574496069CA69F0
:1018980002F07002904204D9CA6922F07002024331
:1018A800CA61D8060BD56D49A069CA6902F4E0621D
:1018B800904204D9CA6922F4E0620243CA619906D7
:1018C8000BD56649E0690A6A02F07002904204D9B1
:1018D8000A6A22F0700202430A629A0740F1A18064
:1018E8005E48E168826902F00F02914204D9826978
:1018F80022F00F020A438261D80730D5574AA168FF
:10190800936923F470630B43936161681368022938
:1019180000F09780032900F08E80012900F097805D
:1019280058079ED54D4E41F28838336923F0070396
:101938000B433361FEF7E0FE074605E0FEF7DCFEE9
:10194800C01B404500F281803369626803F03803A8
:10195800B3EBC20FF2D12368990706D5E1683F4877
:10196800826902F00F028A425FD83B490A6802F096
:101978000F02AA420AD90A6822F00F022A430A6013
:101988000A6802F00F02AA427FF46BAF5A070BD520
:10199800324920698A6902F07002904204D28A6949
:1019A80022F0700202438A611F070BD52B49606938
:1019B800CA6902F07002904204D2CA6922F0700229
:1019C8000243CA61DE060BD52449A069CA6902F43C
:1019D800E062904204D2CA6922F4E0620243CA611A
:1019E8009D060BD51D4AE169136A03F070039942FD
:1019F80004D2136A23F070030B431362FFF77AFED5
:101A0800164A0346164892691649C2F30322825CB5
:101A18000E2002F01F02D340BDE8F0410B60FEF734
:101A280015BEDA073FF56AAF9FE7826922F00F0219
:101A38001143816199E79F013FF574AF11E70120D8
:101A480070479B033FF56EAF0BE703200AE7DE05FF
:101A58003FF568AF05E700BF002000520044025878
:101A68004827000800000024F8B53A4CA36A03F0A0
:101A78000303032B67D0236806460F4623F08063D1
:101A88002360FEF739FE054604E0FEF735FE431BEA
:101A9800022B56D823681A01F7D4A36A326823F4B4
:101AA8007C3343EA0233A362D6E90232013B013AAE
:101AB8005B0212049BB202F4FE0213437268013AFD
:101AC800C2F3080213433269013A120602F0FE42D9
:101AD8001343A363E36A726923F0C0031343E36209
:101AE800E26AB36922F020021A431B4BE262E26AFF
:101AF80022F01002E262E16BF2690B4043EAC20392
:101B0800E363E36A43F01003E362E36AEFB1012F92
:101B18000CBF43F4801343F40013E3620D4C2368B5
:101B280043F080632360FEF7E7FD054604E0FEF717
:101B3800E3FD401B022804D823681B01F7D50020C9
:101B4800F8BD0320F8BD0120F8BD43F40023E3628B
:101B5800E4E700BF004402580700FFFFF8B53A4C1D
:101B6800A36A03F00303032B67D0236806460F46D6
:101B780023F080532360FEF7BFFD054604E0FEF71F
:101B8800BBFD431B022B56D823689A00F7D4A36ADF
:101B9800326823F07C7343EA0253A362D6E9023227
:101BA800013B013A5B0212049BB202F4FE021343AA
:101BB8007268013AC2F3080213433269013A120605
:101BC80002F0FE4213432364E36A726923F440631C
:101BD8001343E362E26AB36922F400721A431B4BAF
:101BE800E262E26A22F48072E262616CF2690B409E
:101BF80043EAC2036364E36A43F48073E362E36A1B
:101C0800EFB1012F0CBF43F4000343F08073E3628C
:101C18000D4C236843F080532360FEF76DFD0546A5
:101C280004E0FEF769FD401B022804D823689B00E6
:101C3800F7D50020F8BD0320F8BD0120F8BD43F416
:101C48008003E362E4E700BF004402580700FFFF97
:101C58002DE9F8430368044613F0006622D0426E6B
:101C6800B2F5001F00F0CE8411D8002A00F0F884E5
:101C7800B2F5801F40F0F18402210430FFF7F4FE32
:101C88000646002E40F08684626E236803E0B2F5B3
:101C9800401F40F0E284A8480026016D21F440115D
:101CA8000A430265DD050AD5626D042A06D8DFE815
:101CB80012F0A20493049A04DF02DF0201263546DB
:101CC80098051BD5A26D802A00F05B8400F2EC8099
:101CD800002A00F08B83402A40F0ED800021201D6F
:101CE800FFF7C2FE23680546002D40F0678392493E
:101CF800A06D0A6D22F4E07202430A6559051FD5EA
:101D0800D4F8A420B2F5800F00F0478400F2D68002
:101D1800002A00F07183B2F5001F40F0D78000213F
:101D2800201DFFF7A1FE23680546002D40F04483DF
:101D38008149D4F8A4008A6D22F4600202438A65BE
:101D48001A051FD5D4F8A820B2F1007F00F02E8420
:101D580000F2BF80002A00F05583B2F1807F40F086
:101D6800C0800021201DFFF77FFE23680546002D57
:101D780040F02A837049D4F8A8008A6D22F0E06206
:101D880002438A659F0118D5A26C202A00F0DA83E5
:101D980000F2AA803AB1102A40F0A9806649CA6ABE
:101DA80042F40032CA62002D40F059836249A06CA7
:101DB800CA6C22F030020243CA64D8041DD5E26D11
:101DC800B2F5005F00F0FB8300F29480002A00F077
:101DD8001F83B2F5805F40F095800021201DFFF73A
:101DE80043FE23680546002D40F0EC825249E06D21
:101DF8000A6D22F4E04202430A6599041AD5226E5C
:101E0800B2F5003F00F074837FD84AB1B2F5803F45
:101E180040F083800121201DFFF726FE2368054638
:101E2800002D40F01E834449206E0A6D22F4E02202
:101E380002430A655A041BD5D4F8AC20B2F1005FFE
:101E480000F060836CD842B1B2F1805F70D101219B
:101E5800201DFFF709FE23680546002D40F0038387
:101E68003549D4F8AC008A6D22F0E04202438A6515
:101E78001F040DD5E26EB2F1805F00F03183B2F13C
:101E8800005F00F00182002A00F004820126354636
:101E9800D8015DD5626C032A00F20A84DFE812F0EB
:101EA800540017034E005400C02A3FF41DAFB2F58A
:101EB800807F3FF419AF012635461FE7B2F5C00F02
:101EC8003FF433AFB2F5000F3FF42FAF012635468C
:101ED80036E7B2F1407F3FF44AAFB2F1806F3FF48A
:101EE80046AF012635464DE7302A3FF45CAF012660
:101EF800354662E7B2F5405F3FF475AFB2F5804F03
:101F08003FF471AF0126354677E722F48031B1F509
:101F1800802F85D0B2F5403F82D00126354689E72B
:101F280022F08051B1F1804F97D0B2F1405F94D048
:101F3800012635469CE700BF004402580221201DB7
:101F4800FFF792FD23680546002D00F06B822E46B0
:101F5800590200F1F081DF072FD5A26F282A2AD86D
:101F6800DFE812F0D30129002900290029002900FF
:101F7800290029006D0329002900290029002900CA
:101F880029002900CC01290029002900290029005D
:101F980029002900D3012900290029002900290046
:101FA80029002900D3012900290029002900290036
:101FB80029002900D30101263546980716D5626FF6
:101FC800052A00F27883DFE812F00D0030030600DE
:101FD8000D000D000D00012104F12400FFF7BEFDE6
:101FE80023680546002D00F025822E46590717D58F
:101FF800D4F89020052A00F26183DFE812F00D0082
:102008000C0306000D000D000D00012104F1240051
:10201800FFF7A4FD23680546002D00F013822E4625
:102028009A061DD5D4F88C20B2F1005F00F04582E5
:1020380000F2DC804AB1B2F1805F40F0E18000211B
:10204800201DFFF711FD23680546002D40F005828D
:10205800A949D4F88C004A6D22F0E04202434A654F
:102068005F061DD5D4F89820B2F5006F00F05482B1
:1020780000F2C9804AB1B2F5806F40F0CE800021ED
:10208800201DFFF7F1FC23680546002D40F0C881AC
:102098009949D4F898008A6D22F4E05202438A657F
:1020A80018061DD5D4F89C20B2F5804F00F03F8269
:1020B80000F2B6804AB1B2F5005F40F0BB80002163
:1020C800201DFFF7D1FC23680546002D40F0A681AE
:1020D8008949D4F89C008A6D22F4604202438A65DB
:1020E80019070BD5D4F88010B1F5805F00F03E8257
:1020F8008148426D22F440520A434265DA060BD504
:10210800D4F89410B1F5807F00F025827A48826D6A
:1021180022F440720A4382651F030ED5D4F8A0103A
:10212800B1F5803F00F0D480B1F5003F00F0D780D2
:10213800002900F0BA810126354658030FD5D4F896
:102148008420B2F5001F00F0B080B2F5401F00F007
:10215800B380B2F5801F00F0A08101263546D9036F
:1021680009D5E26C002A00F08681B2F5803F00F0C4
:102178002D81012635469A0000F1D2809F035CD458
:10218800301E18BF0120DE0206D55B49256F0A6D97
:1021980022F000422A430A65DD0007D55649D4F8E3
:1021A800B4500A6922F480422A430A61990206D58A
:1021B8005149A56E0A6D22F080722A430A655A00B9
:1021C80009D54D4A116921F4004111611169D4F80A
:1021D800B85029431161002B06DA474A216DD36CA8
:1021E80023F040530B43D364BDE8F88322F08051B9
:1021F800B1F1804F3FF429AFB2F1405F3FF425AF12
:10220800012635462CE722F48061B1F5805F3FF462
:102218003CAFB2F5406F3FF438AF012635463FE793
:1022280022F40051B1F5004F3FF44FAFB2F5C04F63
:102238003FF44BAF0126354652E7E26FB2F5807F97
:1022480000F0228106D922F48071B1F5007F03D015
:10225800012098E7002AFBD1002DF9D1264D301E28
:10226800696D18BF012021F440710A436A658AE745
:102278003546002D40F0A4801F49606D0A6D22F09C
:10228800070202430A651BE50121201DFFF7ECFB4D
:1022980023680546002D40F0DE801749E06E0A6D80
:1022A80022F0405202430A65F2E5012104F12400BC
:1022B800FFF754FC23680546002D40F0DA800E49EC
:1022C800D4F884004A6D22F4401202434A6546E776
:1022D800022104F12400FFF741FC23680546002D84
:1022E80040F0C5800449D4F8A0008A6D22F4403239
:1022F80002438A6521E700BF00440258012104F126
:102308002400FFF72BFC23680546002D40F0AD8024
:10231800AF49A06F4A6D22F0380202434A654CE685
:10232800022104F12400FFF719FC236800283FF478
:1023380025AF012622E7A74F3B6843F480733B6033
:10234800FEF7DAF9804606E0FEF7D6F9A0EB0800BA
:10235800642800F27E813B68DA05F5D5002D40F04F
:10236800A4819B4AD4F8B030116F594011F4407FD2
:102378000BD0116F106F21F4407140F4803010675A
:10238800106F20F4803010671167B3F5807F00F07C
:102398006E8103F44072B2F5407F00F07C818C4975
:1023A8000A6922F47C520A61894AC3F30B03116F4C
:1023B8000B4313672368CEE52E46C1E42E469DE401
:1023C8002E467DE42E4618E52E46DBE40221201D2C
:1023D800FFF74AFB05462368002D53D17C49E06C82
:1023E800CA6C22F480320243CA64C4E67849CA6AD5
:1023F80042F40032CA6277E47549CA6A42F400328C
:10240800CA6292E47249CA6A42F40032CA62AEE40D
:102418006F49CA6A42F40032CA62E4E42E465FE6B3
:102428002E463DE66A49606CCA6C22F003020243FC
:10243800CA648DE56649606F4A6D22F0070202435F
:102448004A65D3E56249D4F890008A6D22F0070204
:1024580002438A65E4E52E461AE52E4600E62E4636
:10246800ABE42E46E6E42E4602E52E46A5E52E46CA
:1024780063E62E4673E65649CA6A42F40032CA62D7
:10248800002DABD02E4676E65148C16A41F40031A2
:10249800C162002D7FF4DCAEE0E64D49CA6A42F421
:1024A8000032CA62002DE4D109E7201DFFF7DCFAEB
:1024B80005462368002DDAD114E7022104F124002F
:1024C800FFF74CFB05462368002DC6D1C0E54049FF
:1024D800CA6A42F40032CA62002D7FF438ADA1E71F
:1024E8003B49CA6A42F40032CA62002DB3D1D4E62D
:1024F800012104F12400FFF731FB05462368002D74
:10250800AFD190E4012104F12400FFF727FB054631
:102518002368002DA7D1A3E4022104F12400FFF7CA
:102528001DFB05462368002D7FF47AAFB0E5022134
:1025380004F12400FFF712FB05462368002D7FF401
:102548006DAFC5E50221201DFFF78EFA0546236809
:10255800002D84D12AE4022104F12400FFF7FEFAB9
:10256800236800283FF4D8AD0126D5E5022104F1FF
:102578002400FFF7F3FA236800283FF4BFAD0126D3
:10258800BCE5002104F12400FFF7E8FA23680546BA
:10259800FFF7AABB2368FFF785BB002104F12400DD
:1025A800FFF7DCFA23680546FFF7BFBB002104F1FB
:1025B8002400FFF7D3FA23680546FFF7D8BB0021AC
:1025C80004F12400FFF7CAFA236805460BE400BFAC
:1025D80000440258004802580021201DFFF744FA21
:1025E8002368054645E6002104F12400FFF7B6FA02
:1025F800236805463DE633493546CA6A42F4003247
:10260800CA6236E602212430FFF7A8FA0646002EF1
:102618003FF43AABBEE70121201DFFF725FA054636
:102628002368002D7FF4FBAC0CE70121201DFFF788
:102638001BFA05462368002D7FF4D7ACFAE6012182
:10264800201DFFF711FA05462368002D7FF40DAF12
:102658005EE60326236835467DE40126FFF722BBA4
:102668001848C16A41F40031C162FFF714BBFEF794
:1026780043F8DFF85080074641F2883904E0FEF756
:102688003BF8C01B4845E4D8D8F870309B07F6D50E
:10269800D4F8B0307DE60B480B4A016902EA131200
:1026A80021F47C510A4302617EE623682E4652E4F7
:1026B800012635464CE40126354697E40126354681
:1026C800AEE400BF00440258CFFFFF0070B50D4DC7
:1026D8000D4C641BA4100026A64209D10B4D0C4CCE
:1026E80000F03AF8641BA4100026A64205D170BD7C
:1026F80055F8043B98470136EEE755F8043B9847F0
:102708000136F2E7782700087827000878270008BC
:102718007C2700080A44914200F1FF3300D170473A
:1027280010B511F8014B03F8014F9142F9D110BDD2
:1027380002440346934200D1704703F8011BF9E7AE
:10274800000000000102030401020304060708094F
:102758000006101600061016F8B500BFF8BC08BC35
:102768009E467047F8B500BFF8BC08BC9E46704747
:04277800BD02000896
:04277C0099020008B6
:102780000090D0030090D003010000001000000072
:08279000000000000100000040
:04000005080003618B
:00000001FF
